:020000020000FC
:020000000EC030
:10001C00AEC0F8940FED0DBF0E9419000E94230092
:10002C0078940C942F0000EF04BB0FEF05BB07BBBB
:10003C0001E008BBC0EEDD27089500E40FBD0CE025
:10004C000EBD09B7006109BF04EF0BBD04E20ABD88
:10005C0008950E945F000FEF10130E9437000C945C
:10006C002F001A3028F01A3009F11B3019F00895BE
:10007C00199308952227332711E0D03029F4C03E7C
:10008C0019F408E00EBD08950A91019F200D311D51
:10009C000AE0109F102DD030B9F7C03EA9F708E048
:1000AC000EBD0E9485000CE00EBD0895DD27C0EE4C
:1000BC0008950FEE05BB4AD023B30217D9F40FED08
:1000CC0005BB44D023B30217A9F40FEB05BB3ED0FC
:1000DC0023B3021779F40FE705BB38D023B302170B
:1000EC0049F4F1E0E4E9E20F10F014910895F3956E
:1000FC000C947B0003B32017E9F30C9477004F9317
:10010C005F936F937F938F934427552788270027FE
:10011C00620F731F801F01E0400F00E0501F803002
:10012C0021F4743FA0F3643290F32FB7F8945BBDC5
:10013C004ABD00270DBD0CBD2FBF8F917F916F91D4
:10014C005F914F91089500E015B308950F931F939D
:10015C000F920024002711270A950011FDCF0027CC
:10016C001A951011F9CF0F901F910F910895F894D3
:10017C000F9308B7006108BF08B3000F08F401E043
:10018C0008BB0F9178941895FFFFFFFFFFFFFFFF4F
:10019C00FFFFFFFFFFFFFFFFFFFFFFFFFFFFFFFF63
:1001AC00FFFFFFFFFFFFFFFFFFFFFFFFFFFFFFFF53
:1001BC00FFFFFFFFFFFFFFFFFFFFFFFFFFFFFFFF43
:1001CC00FFFFFFFFFFFFFFFFFFFFFFFFFFFFFFFF33
:1001DC00FFFFFFFFFFFFFFFFFFFFFFFFFFFFFFFF23
:1001EC00FFFFFFFFFFFFFFFFFFFFFFFFFFFFFFFF13
:1001FC00FFFFFFFFFFFFFFFFFFFFFFFFFFFFFF0FF3
:10020C00FFFFFF0EFF0D0CFFFFFFFFFFFFFFFFFFC8
:10021C00FFFFFFFFFFFFFFFFFFFFFFFFFFFFFFFFE2
:10022C00FFFFFFFFFFFFFFFFFFFFFFFFFFFFFFFFD2
:10023C00FFFFFFFFFFFFFFFFFFFFFFFFFFFFFF0BB6
:10024C00FFFFFF09FF0603FFFFFFFFFFFFFFFFFF9D
:10025C00FFFFFFFFFFFFFFFFFFFFFFFFFFFFFF00A1
:10026C00FFFFFF08FF0502FFFFFFFFFFFFFFFF0A75
:10027C00FFFFFF07FF0401FFFFFFFFFFFFFFFFFF73
:08028C00FFFFFFFFFFFFFFFF72
:00000001FF
