:020000020000FC
:020000000EC030
:10001C00A6C00FED0DBF03D00CD0789416C000EF26
:10002C0004BB0FEF05BB07BB01E008BBC0EEDD272F
:10003C00089500E40FBD0CE00EBD09B7006109BFC7
:10004C0004EF0BBD04E20ABD08952DD00FEF101381
:10005C0001D0FBCF1A3028F01A3011F11B3021F0EF
:10006C0008951883C39508952227332711E0D030C3
:10007C0029F4C03E19F408E00EBD0895CA95088114
:10008C00019F200D311D0AE0109F102DD030B1F7CB
:10009C00C03EA1F708E00EBD2AD00CE00EBD0895BD
:1000AC00DD27C0EE08950FEE05BB48D023B3021731
:1000BC00D1F40FED05BB42D023B30217A1F40FEB23
:1000CC0005BB3CD023B3021771F40FE705BB36D048
:1000DC0023B3021741F4F1E0E0E8E20F10F01491C1
:1000EC000895F395FCCF03B32017E9F3F4CF4F93A6
:1000FC005F936F937F938F9344275527882700270F
:10010C00620F731F801F01E0400F00E0501F803012
:10011C0021F4743FA0F3643290F32FB7F8945BBDD5
:10012C004ABD00270DBD0CBD2FBF8F917F916F91E4
:10013C005F914F91089500E015B308950F931F93AD
:10014C000F920024002711270A950011FDCF0027DC
:10015C001A951011F9CF0F901F910F9108950F93CD
:10016C0008B7006108BF08B3000F08F401E008BB32
:10017C000F911895FFFFFFFFFFFFFFFFFFFFFFFF32
:10018C00FFFFFFFFFFFFFFFFFFFFFFFFFFFFFFFF73
:10019C00FFFFFFFFFFFFFFFFFFFFFFFFFFFFFFFF63
:1001AC00FFFFFFFFFFFFFFFFFFFFFFFFFFFFFFFF53
:1001BC00FFFFFFFFFFFFFFFFFFFFFFFFFFFFFFFF43
:1001CC00FFFFFFFFFFFFFFFFFFFFFFFFFFFFFFFF33
:1001DC00FFFFFFFFFFFFFFFFFFFFFFFFFFFFFFFF23
:1001EC00FFFFFFFFFFFFFFFFFFFFFF0FFFFFFF0EF4
:1001FC00FF0D0CFFFFFFFFFFFFFFFFFFFFFFFFFFE8
:10020C00FFFFFFFFFFFFFFFFFFFFFFFFFFFFFFFFF2
:10021C00FFFFFFFFFFFFFFFFFFFFFFFFFFFFFFFFE2
:10022C00FFFFFFFFFFFFFFFFFFFFFF0BFFFFFF09BC
:10023C00FF0603FFFFFFFFFFFFFFFFFFFFFFFFFFB7
:10024C00FFFFFFFFFFFFFFFFFFFFFF00FFFFFF08A8
:10025C00FF0502FFFFFFFFFFFFFFFF0AFFFFFF0786
:10026C00FF0401FFFFFFFFFFFFFFFFFFFFFFFFFF8B
:04027C00FFFFFFFF82
:00000001FF
